{
  "_format": "hh-sol-artifact-1",
  "contractName": "TempHumidity",
  "sourceName": "contracts/TempHumidity.sol",
  "abi": [
    {
      "anonymous": false,
      "inputs": [
        {
          "indexed": true,
          "internalType": "address",
          "name": "sender",
          "type": "address"
        },
        {
          "indexed": false,
          "internalType": "uint256",
          "name": "temperature",
          "type": "uint256"
        },
        {
          "indexed": false,
          "internalType": "uint256",
          "name": "humidity",
          "type": "uint256"
        },
        {
          "indexed": false,
          "internalType": "uint256",
          "name": "timestamp",
          "type": "uint256"
        },
        {
          "indexed": false,
          "internalType": "bytes32",
          "name": "transactionHash",
          "type": "bytes32"
        }
      ],
      "name": "DataStored",
      "type": "event"
    },
    {
      "inputs": [],
      "name": "getAllRecords",
      "outputs": [
        {
          "components": [
            {
              "internalType": "uint256",
              "name": "temperature",
              "type": "uint256"
            },
            {
              "internalType": "uint256",
              "name": "humidity",
              "type": "uint256"
            },
            {
              "internalType": "uint256",
              "name": "timestamp",
              "type": "uint256"
            }
          ],
          "internalType": "struct TempHumidity.Record[]",
          "name": "",
          "type": "tuple[]"
        }
      ],
      "stateMutability": "view",
      "type": "function"
    },
    {
      "inputs": [],
      "name": "getLatestRecord",
      "outputs": [
        {
          "internalType": "uint256",
          "name": "",
          "type": "uint256"
        },
        {
          "internalType": "uint256",
          "name": "",
          "type": "uint256"
        },
        {
          "internalType": "uint256",
          "name": "",
          "type": "uint256"
        }
      ],
      "stateMutability": "view",
      "type": "function"
    },
    {
      "inputs": [],
      "name": "getRecordCount",
      "outputs": [
        {
          "internalType": "uint256",
          "name": "",
          "type": "uint256"
        }
      ],
      "stateMutability": "view",
      "type": "function"
    },
    {
      "inputs": [
        {
          "internalType": "uint256",
          "name": "_temperature",
          "type": "uint256"
        },
        {
          "internalType": "uint256",
          "name": "_humidity",
          "type": "uint256"
        }
      ],
      "name": "storeData",
      "outputs": [],
      "stateMutability": "nonpayable",
      "type": "function"
    }
  ],
  "bytecode": "0x6080604052348015600f57600080fd5b5061067a8061001f6000396000f3fe608060405234801561001057600080fd5b506004361061004c5760003560e01c8063711c1c4a14610051578063a7f9fe721461006d578063b86477881461008b578063ca267f28146100ab575b600080fd5b61006b60048036038101906100669190610314565b6100c9565b005b61007561018a565b6040516100829190610454565b60405180910390f35b610093610207565b6040516100a293929190610485565b60405180910390f35b6100b36102cd565b6040516100c091906104bc565b60405180910390f35b6000604051806060016040528084815260200183815260200142815250908060018154018082558091505060019003906000526020600020906003020160009091909190915060008201518160000155602082015181600101556040820151816002015550503373ffffffffffffffffffffffffffffffffffffffff167fcc73a9a66dabbc82687bd9235873f8bc1fb95211769a4d95bce5422b123202a58383426000801b60405161017e94939291906104f0565b60405180910390a25050565b60606000805480602002602001604051908101604052809291908181526020016000905b828210156101fe57838290600052602060002090600302016040518060600160405290816000820154815260200160018201548152602001600282015481525050815260200190600101906101ae565b50505050905090565b60008060008060008054905011610253576040517f08c379a000000000000000000000000000000000000000000000000000000000815260040161024a90610592565b60405180910390fd5b600080600160008054905061026891906105e1565b8154811061027957610278610615565b5b90600052602060002090600302016040518060600160405290816000820154815260200160018201548152602001600282015481525050905080600001518160200151826040015193509350935050909192565b60008080549050905090565b600080fd5b6000819050919050565b6102f1816102de565b81146102fc57600080fd5b50565b60008135905061030e816102e8565b92915050565b6000806040838503121561032b5761032a6102d9565b5b6000610339858286016102ff565b925050602061034a858286016102ff565b9150509250929050565b600081519050919050565b600082825260208201905092915050565b6000819050602082019050919050565b610389816102de565b82525050565b6060820160008201516103a56000850182610380565b5060208201516103b86020850182610380565b5060408201516103cb6040850182610380565b50505050565b60006103dd838361038f565b60608301905092915050565b6000602082019050919050565b600061040182610354565b61040b818561035f565b935061041683610370565b8060005b8381101561044757815161042e88826103d1565b9750610439836103e9565b92505060018101905061041a565b5085935050505092915050565b6000602082019050818103600083015261046e81846103f6565b905092915050565b61047f816102de565b82525050565b600060608201905061049a6000830186610476565b6104a76020830185610476565b6104b46040830184610476565b949350505050565b60006020820190506104d16000830184610476565b92915050565b6000819050919050565b6104ea816104d7565b82525050565b60006080820190506105056000830187610476565b6105126020830186610476565b61051f6040830185610476565b61052c60608301846104e1565b95945050505050565b600082825260208201905092915050565b7f4e6f206461746120617661696c61626c65000000000000000000000000000000600082015250565b600061057c601183610535565b915061058782610546565b602082019050919050565b600060208201905081810360008301526105ab8161056f565b9050919050565b7f4e487b7100000000000000000000000000000000000000000000000000000000600052601160045260246000fd5b60006105ec826102de565b91506105f7836102de565b925082820390508181111561060f5761060e6105b2565b5b92915050565b7f4e487b7100000000000000000000000000000000000000000000000000000000600052603260045260246000fdfea264697066735822122034fcbe9922229fde7100b38c38c066e43914077a6eea0f3db51e1237028978a564736f6c634300081c0033",
  "linkReferences": {},
  "deployedLinkReferences": {}
}